:020000040800F2
:1000000038080020DD070008F9070008FD07000890
:1000100001080008050800080908000800000000A1
:100020000000000000000000000000000D080008B3
:100030001108000800000000150800081908000851
:100040001D080008210800082508000829080008E4
:100050002D08000831080008350800083908000894
:100060003D08000841080008450800084908000844
:100070004D080008510800085508000859080008F4
:100080005D080008610800086508000869080008A4
:100090006D08000871080008750800087908000854
:1000A0007D08000881080008850800088908000804
:1000B0008D080008910800089508000899080008B4
:1000C0009D080008A1080008A5080008A908000864
:1000D000AD08000891050008B1080008B50800083F
:1000E000B9080008BD080008C108000830B585B08F
:1000F00005000C0000200020002000200020A08926
:100100000028298A4CF6FF700140E08801432982CB
:10011000A9894EF6F3100140A28820890243608924
:1001200002431143A981A98A4FF6FF400140A089EB
:100130000143A982684600F0A5F81B48854201D119
:10014000039900E00299A889000406D519204143CB
:1001500020684000B1FBF0F205E01920414320681F
:100160008000B1FBF0F26420B2FBF0F109010B005A
:100170001B09642000FB1322A889000408D5D000C5
:1001800032306422B0FBF2F010F00700014307E0C8
:10019000100132306422B0FBF2F010F00F00014386
:1001A000298105B030BD000000380140C9B20029E6
:1001B00004D0818951F40051818104E082894DF697
:1001C000FF710A408281704710B40023002300238E
:1001D000002389B240F66A1399420B00DBB25B0937
:1001E000DBB289B211F01F01012414FA01F1012BD5
:1001F00001D10C3004E0022B01D1103000E01430AA
:10020000D2B2002A03D002681143016003E0026801
:1002100032EA0101016010BC70478088C005C00D42
:10022000704710B4002200220022002289B240F65A
:100230006A1291420B00DBB25B09DBB289B211F0AA
:100240001F02012414FA02F2012B02D183891A4001
:1002500006E0022B02D1038A1A4001E0838A1A4089
:1002600089B2090A89B2012313FA01F10088014019
:10027000002A03D0002901D0012000E00020C0B2F4
:1002800010BC704700210021002100213449096879
:1002900011F00C01002904D0042905D0082906D04A
:1002A00021E03049016020E02E4901601DE02C4929
:1002B0000A6812F470122A49096811F48031920C0C
:1002C000921C002903D128494A4302600AE02449CC
:1002D0000968890303D524494A43026002E02149A1
:1002E0004A43026001E01F4901601D49096811F09D
:1002F000F00109091D4A515C0268CA404260184970
:10030000096811F4E061090A184A515C4268CA4060
:1003100082601349096811F46051C90A134A515C9B
:100320004268CA40C2600E49096811F44041890B15
:100330000F4A515CC268B2FBF1F101617047C9B26A
:10034000002905D00B49096808430A49086005E0FF
:100350000849096831EA0000064908607047000052
:100360000410024000127A0000093D000000002045
:10037000100000201810024080B54E48006850F070
:1003800001004C4908604C4801684C4801404A480B
:100390000160484801684A480140464801604548B4
:1003A000006830F48020434908604348006830F416
:1003B000FE00414908605FF41F004249086000F0F8
:1003C00005F85FF000604049086001BD80B500F0AD
:1003D00001F801BD82B00020019000200090354856
:1003E000006850F48030334908603248006810F4E7
:1003F000003000900198401C01900098002803D123
:100400000198B0F5A06FF0D12A480068800302D5AA
:100410000120009001E0002000900098012847D1C1
:100420002A48006850F010002849086027480068F2
:1004300080088000254908602448006850F00200C8
:10044000224908601C4800681B4908601A48006877
:10045000194908601848006850F48060164908601F
:100460001548006830F47C10134908601248006891
:1004700050F4E810104908600E48006850F0807091
:100480000C4908600B4800688001FBD50A480068E9
:1004900080088000084908600748006850F00200A2
:1004A000054908600448006810F00C000828F9D1DC
:1004B00002B0704700100240041002400000FFF834
:1004C000FFFFF6FE0810024008ED00E000200240A9
:1004D00080B500F026F800F04AF800F02DF84FF44F
:1004E00016503B490860002039498880002038496F
:1004F000C8800020364908810020354988810C20B9
:100500003349488132493348FFF7F0FD012240F278
:1005100025513048FFF758FE01212E48FFF746FECF
:10052000FEE780B501210520FFF709FF01214FF407
:100530008040FFF704FF01BD80B54FF4806026497D
:10054000088004202449C8702349244800F050F84A
:100550004FF400702049088003201F49887018203C
:100560001D49C8701C491D4800F042F801BD80B506
:1005700025201B49087001201949C870002018491E
:100580004870002016498870154800F093F801BDA6
:1005900010B511E013480478601C124908700D482A
:1005A000FFF73BFE1049E4B208550E4800780428D6
:1005B00002D100200B49087040F225510548FFF791
:1005C00030FE0028E6D101200849087010BD000067
:1005D00014000020003801402400002000080140E1
:1005E00028000020300000202C00002031000020D6
:1005F00070B4002200220022002200220022CB78C8
:1006000013F00F03CA78D20601D58A7813430A780B
:10061000120621D0066800241BE0CA78482A17D1A8
:100620000122A240026113E00125A5400A882A4068
:10063000AA420DD1A2000F259540AE4313FA02F253
:1006400032431600CA78282AE7D10122A24042612B
:10065000641C082CE8D306600A88B2F5807F27DB8B
:100660004568002421E0012214F1080612FA06F67A
:100670000A883240B24217D1A2000F269640B543F5
:1006800013FA02F22A431500CA78282A04D1012657
:1006900014F1080296404661CA78482A04D101261E
:1006A00014F1080296400661641C082CDBD34560F7
:1006B00070BC7047002100210F23C17800291ED093
:1006C0001449096811F4E061D1F5E061090AD1F13A
:1006D0000402CB40417811FA02F281780B401A43B0
:1006E00012010D490378CA540121027812F01F0249
:1006F00091400A4A0078401142F8201009E0012197
:10070000027812F01F029140054A0078401142F829
:10071000201070470CED00E000E400E000E100E094
:1007200080E100E030B5016884684218416802EB5E
:100730005103C9070BD54C4409E012F9011B12F80B
:10074000015B002904F8015B05D5491CF9D19A42E7
:10075000F3D10C3030BD491EF1D5F8E710B507498B
:1007600079441831064C7C44163404E00A68081DAC
:10077000114488470146A142F8D110BD080000008D
:1007800014000000A1FFFFFF3C0100002A00000050
:100790000000002000F00DF8002801D0FFF7DEFF78
:1007A000AFF300800020AFF30080FFF791FE00F070
:1007B00002F80120704700F001B8000007463846F3
:1007C00000F002F8FBE7000080B5AFF30080024ABA
:1007D00011001820ABBEFBE726000200014880474D
:1007E0000148004779030008ED070008AFF30080D7
:1007F000AFF30080FFF7CEFFFFF7FEBFFFF7FEBFAE
:10080000FFF7FEBFFFF7FEBFFFF7FEBFFFF7FEBF1C
:10081000FFF7FEBFFFF7FEBFFFF7FEBFFFF7FEBF0C
:10082000FFF7FEBFFFF7FEBFFFF7FEBFFFF7FEBFFC
:10083000FFF7FEBFFFF7FEBFFFF7FEBFFFF7FEBFEC
:10084000FFF7FEBFFFF7FEBFFFF7FEBFFFF7FEBFDC
:10085000FFF7FEBFFFF7FEBFFFF7FEBFFFF7FEBFCC
:10086000FFF7FEBFFFF7FEBFFFF7FEBFFFF7FEBFBC
:10087000FFF7FEBFFFF7FEBFFFF7FEBFFFF7FEBFAC
:10088000FFF7FEBFFFF7FEBFFFF7FEBFFFF7FEBF9C
:10089000FFF7FEBFFFF7FEBFFFF7FEBFFFF7FEBF8C
:1008A000FFF7FEBFFFF7FEBFFFF7FEBFFFF7FEBF7C
:1008B000FFF7FEBFFFF7FEBFFFF7FEBFFFF7FEBF6C
:1008C000FFF7FEBFFC000F01020304010203040650
:0908D00007080902040608E20011
:04000005080007EDFB
:00000001FF
